S00D00005461736B312E7372656353
S21440000008350020F10C4000B90D4000B90D400005
S214400010B90D4000B90D4000B90D40000000000089
S214400020000000000000000000000000B90D400085
S214400030B90D400000000000B90D4000B90D400069
S214400040B90D4000B90D4000B90D4000B90D400053
S214400050B90D4000B90D4000B90D40000000000049
S214400060B90D4000B90D400000000000AD02400050
S214400070C502400000000000B90D4000B90D400028
S2144000800000000000000000B90D4000B90D40001F
S214400090B90D4000B90D4000B90D4000B90D400003
S2144000A0B90D4000B90D40000000000000000000FF
S2144000B000000000B90D4000B90D4000B90D4000E9
S2144000C0B90D4000B90D4000B90D400010B5054CC3
S2144000D0237833B9044B13B10448AFF300800123AF
S2144000E0237010BD4404002000000000D0164000DD
S2144000F00C4B43B10C480D4910B5AFF300800C488B
S214400100036823B910BD0A48036833B97047094BE2
S214400110002BF7D0BDE810401847064B002BF5D013
S214400120184700BF00000000D016400048040020DA
S214400130D01640000000000080B584B000AF786064
S214400140396078682C4B9847F86078682B4B98470E
S2144001500246FB681340FB60FB68002B3CD0002344
S214400160BB6034E0264ABB681B0113441A683B68F0
S2144001709A4226D1224ABB681B01134404331A68AC
S214400180FB681340002B1CD01D4ABB681B01134460
S2144001900C331B681A49BA6812010A441068184999
S2144001A0BA6812010A440432126811469847144A43
S2144001B0BB681B01134404331B68DB43FA681340D7
S2144001C0FB60BB680133BB60BB68062B03D8FB688B
S2144001D0002BC7D100E000BF0A4B1B68002B07D09E
S2144001E0094B1B68002B03D0074B1B687868984761
S2144001F000BF1037BD4680BDF307400009084000E9
S21440020060040020DC040020D404002080B586B0C2
S21440021000AFF860B9607A603B60214B1B68062BE4
S21440022001D9012338E00023FB7511E0FB7D1B015B
S2144002301C4A13443B613B691A68BB689A4204D126
S2144002403B695A687B689A4208D0FB7D0133FB7550
S214400250FA7D134B1B689A42E8D900E000BF3B6921
S214400260BA681A603B697A685A603B693A689A602D
S2144002703B693A6ADA60FA7D094B1B6801339A4259
S21440028004D1074B1B680133054A13603A68796806
S214400290F868054B9847002318461837BD4680BD7A
S2144002A0D0040020600400206F07400080B500AFF7
S2144002B00B210248024B984700BF80BD000E0E40FF
S2144002C03901400080B500AF0C210248024B9847E8
S2144002D000BF80BD00100E403901400080B483B09E
S2144002E000AF0346FB7197F90730002B0BDB08493C
S2144002F097F907305B09FA7902F01F02012000FAED
S21440030002F241F8232000BF0C37BD4680BC704740
S21440031000E100E090B585B002AF78603960134BDD
S2144003201B68002B0FD0124B01221A60114B009312
S21440033059234FF480020B210F48104CA0470B4B1B
S21440034000221A600EE00A4B01221A60094B009305
S21440035079234FF480020B210748084CA047034BF3
S21440036001221A6000BF0C37BD4690BD0C0000202D
S214400370D804002015034000000E0E400D02400039
S21440038090B583B002AF0B200E4B98470A224FF42D
S21440039080010D480D4B98470D4B009379234FF441
S2144003A080020B2108480B4CA0470B200A4B98476D
S2144003B04FF480010448094B984700BF0437BD46B8
S2144003C090BD00BF6D0A4000000E0E403907400049
S2144003D0150340000D024000DD024000D9074000F2
S2144003E080B582B000AF78607B68072B31D801A219
S2144003F052F823F051044000150440001D0440000C
S214400400250440002D044000350440003D044000D3
S214400410470440000020114B98471AE001200F4B3C
S214400420984716E000200E4B984712E010200C4BE1
S21440043098470EE020200A4B98470AE03E210020CD
S214400440084B984705E03E210120064B984700E0C0
S21440045000BF00BF0837BD4680BD00BFA1084000B2
S2144004600D0940007D09400080B582B000AF78603D
S2144004707B68072B26D801A252F823F09D04400043
S214400480A1044000A1044000B3044000B30440006F
S214400490B3044000B3044000B3044000012312E01C
S2144004A00B4B98470346002B14BF01230023DBB2B7
S2144004B009E0084B98470346002B14BF012300234E
S2144004C0DBB200E0002318460837BD4680BD00BFBB
S2144004D0D9084000F509400080B483B000AF78608A
S2144004E07B68072B25D801A252F823F00D05400063
S2144004F013054000190540001F0540002305400035
S214400500270540002B0540002F0540004FF4FA43D6
S21440051010E04FF400430DE04FF400430AE0084B70
S21440052008E0084B06E0084B04E0074B02E0064BA9
S21440053000E0002318460C37BD4680BC704700BF1D
S21440054000093D0000127A00001BB70080B582B05B
S21440055000AF0346FB7100BFFB791846054B984732
S214400560034683F00103DBB2002BF5D100BF08370A
S214400570BD4680BD6904400080B586B000AFF860D7
S2144005807A603B600B46FB72FB7A18460D4B9847E9
S21440059002467B68B2FBF3F37B617B693A6802FBF9
S2144005A003F37B613B68013B1A04074B13407A68B0
S2144005B0D2B2134343F47C52FB681A6000BF18372C
S2144005C0BD4680BDD90440000000FF0780B582B01C
S2144005D000AF786039603B68002B08D1094B9847DC
S2144005E0094A7B681B6843F00053936205E0074B5B
S2144005F09847054A7B681B68D36200BF0837BD46EC
S21440060080BD00BF0D0A400000040E403D0A400079
S21440061080B582B000AF78607B68002B03D1054B75
S2144006209847034602E0044B984703461846083767
S214400630BD4680BD250A4000550A400080B582B0C0
S21440064000AF0346FB71FB79033B042B08D8FB79CC
S2144006501846064B9847FB791846054B984700E0E6
S21440066000BF00BF0837BD4680BD00BFE103400065
S2144006704D05400080B582B000AF786000BF786816
S214400680044B98470346002BF9D0002318460837FA
S214400690BD4680BD1106400080B500AF0620044B25
S2144006A09847024613469B0013449B00184680BD5D
S2144006B0D904400080B500AF024B984703465B081C
S2144006C0184680BD9906400090B583B000AF1148EB
S2144006D0114B98470620114B9847381D142301228A
S2144006E006210F4CA0473B1D002118460D4B98474E
S2144006F000200D4B984710200C4B98470C4B9847C2
S2144007000C4B984703461846034B984700BF0C3798
S214400710BD4690BD000E2707590F40003D064000DD
S21440072079054000CD054000750640002108400090
S214400730C10D4000B506400080B485B000AFF860FB
S214400740B9607A60FB68BA68C3F884207B685B004F
S2144007504FF40042B2FBF3F3013BC3F30D02FB68D8
S214400760C3F88C2000BF1437BD4680BC704780B4A9
S21440077085B000AFF860B9607A607B6803F010031C
S214400780002B20D0FB68BA68C3F8B0207B6803F023
S2144007902003002B04D0FB68BA68C3F8D42003E0DB
S2144007A0FB68BA68C3F8D0207B6803F04003002B90
S2144007B004D0FB68BA68C3F8C02008E0FB68BA6893
S2144007C0C3F8C42003E0FB68BA68C3F8B42000BF8F
S2144007D01437BD4680BC704780B483B000AF7860A5
S2144007E039607B683A681A6400BF0C37BD4680BCE7
S2144007F0704780B483B000AF78607B68DB6C184687
S2144008000C37BD4680BC704780B483B000AF78607C
S2144008107B689B6C18460C37BD4680BC7047000012
S21440082080B485B000AF78601C491C4B1B6B23F02E
S21440083070027B6813430B634FF40063FB6007E072
S214400840FB68002B01D1012323E0FB68013BFB60E2
S214400850124B9B6E03F00803002BF1D00F4A0F4B50
S2144008601B6B23F0030343F0020313634FF4006350
S214400870FB6007E0FB68002B01D1012309E0FB6821
S214400880013BFB60054B9B6E03F00803002BF1D049
S214400890002318461437BD4680BC704700040E40FF
S2144008A080B483B000AF78607B68012B07D1084ADC
S2144008B0074B9B6843F0254343F480139360044BF7
S2144008C0044A1A6000BF0C37BD4680BC704700BF64
S2144008D010140E40080000A580B400AF094B5B69B9
S2144008E003F08003002B07D0074B9B6E03F080037A
S2144008F0002B01D0012300E000231846BD4680BCF3
S214400900704700BF10140E4000040E4080B483B001
S21440091000AF7860184A184B1B6A43F45C1343F0E8
S2144009200803136200BF144B9B6E03F40033002B86
S214400930F9D01149104B1B6A23F45C1323F0700363
S2144009407A68134343F45C130B6200BF0A4B9B6EFA
S21440095003F40033002BF9D0074A074B1B6A23F0F9
S2144009609B7323F4803343F45C13136200BF0C374D
S214400970BD4680BC704700BF00040E4080B483B0C4
S21440098000AF786039607B68002B08D01649164B5C
S2144009901B6A164A1A40164B13430B621EE0124956
S2144009A0114B1B6A23F45C1323F003033A681202CC
S2144009B092B2134343F45C1343F001030B6200BF4F
S2144009C0094B9B6E03F00103002BF9D0064A064BF9
S2144009D01B6A43F09B7343F48033136200BF0C37AB
S2144009E0BD4680BC704700BF00040E40FCFFC8FEFA
S2144009F00200370180B400AF034B9B6E03F4803394
S214400A001846BD4680BC704700040E4080B400AF18
S214400A10034B4FF000529A6200BFBD4680BC704701
S214400A2000040E4080B400AF034B9B6E03F00203FD
S214400A301846BD4680BC704700040E4080B400AFE8
S214400A40034B0022DA6200BFBD4680BC704700BF41
S214400A5000040E4080B400AF034B9B6E03F00403CB
S214400A601846BD4680BC704700040E4080B483B034
S214400A7000AF78607B68222B01D901232FE07B688A
S214400A801F2B13D8184B9A6901217B6801FA03F390
S214400A901A4001217B6801FA03F39A421ED0124A9B
S214400AA001217B6801FA03F3136117E07B68203B62
S214400AB07B600D4BD3F8082101217B6801FA03F3D4
S214400AC01A4001217B6801FA03F39A4206D0064A8F
S214400AD001217B6801FA03F3C2F80031002318466F
S214400AE00C37BD4680BC704700040E4080B582B0CF
S214400AF000AF78607868034B984700BF0837BD461C
S214400B0080BD00BF6D0A400080B500AF0B20034B90
S214400B1098470C20014B984700BF80BDED0A400027
S214400B2080B48DB000AF786039607B68FB623B680C
S214400B30BB62FB6A7B627B6A5A09FB6A3B623B6A22
S214400B4003F01F03012101FA03F3FA61BB61BB6A9C
S214400B507B61FB693B613B6903F5001303F2077356
S214400B605B02FB607B6903F00803002B03D0FB6845
S214400B70BA695A6602E0FB68BA691A667B6903F08E
S214400B801003002B04D0FB68BA69C3F8942003E036
S214400B90FB68BA69C3F890207B6903F02003002BFA
S214400BA003D0FB68BA691A6502E0FB68BA695A6501
S214400BB07B6903F0C003002B03D0FB68BA691A6256
S214400BC002E0FB68BA695A627B6903F08003002B37
S214400BD004D0FB68BA69C3F8842003E0FB68BA69AE
S214400BE0C3F880207B6903F00103002B06D0FB6826
S214400BF01A6FBB691A43FB681A6706E0FB681A6FF0
S214400C00BB69DB431A40FB681A677B6903F0020343
S214400C10002B06D0FB685A6FBB691A43FB685A67BD
S214400C2006E0FB685A6FBB69DB431A40FB685A67AD
S214400C3000BF3437BD4680BC704780B48DB000AF2F
S214400C4078600B46FB707B68FB62FB7887F82B303E
S214400C50FB6A7B627B6A3B623B6A5B09FB61FB69C2
S214400C6003F5001303F207735B02BB6197F82B3062
S214400C70012B09D1FB6A7B617B6903F01F030122CC
S214400C809A40BB691A610CE097F82B30002B08D1CC
S214400C90FB6A3B613B6903F01F0301229A40BB6934
S214400CA05A61FB6AFB60FB6803F01F0301229A400F
S214400CB0BB69C3F8A02000BF3437BD4680BC704730
S214400CC080B500AF074B984701211720064B984741
S214400CD000211620044B984710211620034B9847B6
S214400CE000BF80BD090B40003B0C4000210B40007C
S214400CF080B584B000AF274BFB60274BBB60FA68DB
S214400D00BB689A420DD907E0BB681A1DBA60FA68FC
S214400D10111DF96012681A60BB68204A9342F3D3EB
S214400D2020E0FA68BB689A421CD21C4A1A4BD31A77
S214400D307B60FA687B681344043BFB60BA687B6858
S214400D401344043BBB600AE0BB681A1FBA60FA68EB
S214400D50111FF96012681A607B68043B7B607B68F1
S214400D60002BF1D100BF0E4BBB6004E0BB681A1DE0
S214400D70BA6000221A60BB680A4A9342F6D30A4B0E
S214400D80FB600A4AFB689360094B9847094B9847B3
S214400D90FEE700BFD01640000000002044040020BC
S214400DA044040020040500200000400000ED00E060
S214400DB031154000FD10400080B400AFFEE7000053
S214400DC080B400AF5D4B1B6B03F00303032B00F2B4
S214400DD0968001A252F823F0E90D4000090E40002B
S214400DE0530E4000530E4000554B5B6903F08003A2
S214400DF0002B04D0534B4FF400421A6080E0514B16
S214400E004FF4FA421A607BE04C4B1B6A03F0807347
S214400E10002B03D04B4B4C4A1A6071E0494B4B4A6F
S214400E201A60464B1B6A03F07003102B08D0202B29
S214400E300AD0002B00D00BE0424B444A1A6007E031
S214400E40404B434A1A6003E03E4B3F4A1A6000BF9D
S214400E5056E03A4B1B6A03F08073002B03D0394BA5
S214400E60394A1A6019E0374B384A1A60334B1B6AC6
S214400E7003F07003102B08D0202B0AD0002B00D094
S214400E800BE0304B314A1A6007E02E4B304A1A606E
S214400E9003E02C4B2C4A1A6000BF284B1B6B03F018
S214400EA00303022B15D1254B9B6A1B0CC3F30A0385
S214400EB00133244A126802FB03F3224A13601F4B95
S214400EC09B6ADBB21F4A1268B2FBF3F31D4A1360FB
S214400ED016E01A4BDB6A1B0CC3F30A030133194AAC
S214400EE0126802FB03F3174A1360144BDB6ADBB24B
S214400EF0144A1268B2FBF3F3124A136000E000BFD4
S214400F000E4B1B6B03F07003702B08D10D4B1B6808
S214400F10104AA2FB03235B080A4A13600AE0074B09
S214400F201B6B1B0903F00703064A126822FA03F3F9
S214400F30044A136000BFBD4680BC704700040E40A4
S214400F4010140E4010000020001BB70000093D00A2
S214400F5000127A00ABAAAAAA80B483B000AF786029
S214400F607B68184A934204D8174B4FF080621A6049
S214400F7023E07B68154A934203D8134B144A1A6001
S214400F801BE07B68134A934203D80F4B124A1A6001
S214400F9013E07B68114A934203D80B4B104A1A6001
S214400FA00BE07B680F4A934204D8074B4FF004226D
S214400FB01A6002E0044B0C4A1A6000BF0C37BD466C
S214400FC080BC7047FF2C3101000A0E40FF59620278
S214400FD000010004FF86930300020004FFB3C4042C
S214400FE000030004FFE0F5050005000480B483B06C
S214400FF000AF78607B68072B25D801A252F823F013
S21440100021104000271040002D10400033104000B3
S214401010371040003B1040003F1040004310400057
S2144010204FF4FA4310E04FF400430DE04FF4004312
S2144010300AE0084B08E0084B06E0084B04E0074B84
S21440104002E0064B00E0002318460C37BD4680BC45
S214401050704700BF00093D0000127A00001BB70031
S21440106080B500AF0620044B9847024613469B00C7
S21440107013449B00184680BDED0F400080B500AF7E
S214401080024B984703465B08184680BD61104000F7
S21440109080B48BB000AF78600B46FB707B687B6299
S2144010A0FB7887F823307B6AFB61FB69BB61BB69D1
S2144010B05B097B617B6903F5001303F207735B02F0
S2144010C03B6197F82330002B09D07B6AFB60FB68B6
S2144010D003F01F0301229A403B691A6308E07B6ACB
S2144010E0BB60BB6803F01F0301229A403B695A630A
S2144010F000BF2C37BD4680BC704700002DE9F04B42
S21440110000AF3E4B98473E4B98473E4B98473E4B2A
S2144011101B68002B35D03D4B1B68002B31D101217D
S21440112017203B4B98473B4B9847034619464FF092
S21440113000020B461446A60046EA93769D002B46D0
S21440114034465B1844EB0204DB1844EB04041946AF
S214401150224643F2AF634FF0000411EB030B42EB21
S214401160040C584661462C4C43F2B0624FF00003E4
S214401170A04703460C461846284B9847224B002269
S2144011801A60214B1B68002BC1D0204B1B68002BDC
S214401190BDD0002117201E4B98471E4B984703464C
S2144011A019464FF000020B4614464FEA840949EAB6
S2144011B093794FEA830843464C465B1844EB020457
S2144011C0DB1844EB04041946224643F2AF634FF063
S2144011D0000411EB030B42EB040C584661460E4CE0
S2144011E043F2B0624FF00003A04703460C46184651
S2144011F00A4B9847044B00221A6088E7C90640000D
S214401200C10C400081034000D80400200C000020A0
S214401210911040007D104000211240000100002047
S21440122053B94AB9002908BF00281CBF4FF0FF3108
S2144012304FF0FF3000F07AB9ADF1080C6DE904CEFE
S21440124000F006F8DDF804E0DDE9022304B070475C
S2144012502DE9F0478C460D460446089E002B51D19A
S2144012608A4217466DD9B2FA82FEBEF1000F0BD005
S214401270CEF1200C01FA0EF520FA0CFC02FA0EF71D
S2144012804CEA050C00FA0EF44FEA174A250CBCFB54
S214401290FAF81FFA87F90AFB18CC45EA0C4508FB12
S2144012A009F3AB420AD9ED1908F1FF3280F02381E9
S2144012B0AB4240F22081A8F102083D44ED1AA4B2A8
S2144012C0B5FBFAF00AFB105544EA054400FB09F961
S2144012D0A14509D9E41900F1FF3380F00A81A14500
S2144012E040F2078102383C44A4EB090440EA084037
S2144012F00021002E61D024FA0EF40023346073607F
S214401300BDE8F0878B4207D9002E54D0002186E8EE
S21440131021000846BDE8F087B3FA83F1002940F083
S2144013208E80AB4202D3824200F2FA80841A65EB8A
S21440133003050120AC46002E3FD086E81010BDE8DD
S214401340F08712B90127B7FBF2F7B7FA87FEBEF16E
S214401350000F34D1EB1B3A0C1FFA87FC0121B3FB7C
S214401360F2F8250C02FB183345EA03450CFB08F35C
S214401370AB4207D9ED1908F1FF3002D2AB4200F27A
S214401380D1808046ED1AA3B2B5FBF2F002FB1055B1
S21440139043EA05440CFB00FCA44507D9E41900F1D8
S2144013A0FF3302D2A44500F2B8801846A4EB0C04E2
S2144013B040EA08409DE731463046BDE8F087CEF12A
S2144013C0200405FA0EF307FA0EF720FA04F83A0C52
S2144013D025FA04F448EA0308B4FBF2F14FEA18454C
S2144013E002FB11441FFA87FC45EA044501FB0CF357
S2144013F0AB4200FA0EF409D9ED1901F1FF3080F046
S2144014008A80AB4240F2878002393D44EB1A1FFA8D
S21440141088F5B3FBF2F002FB103345EA034500FBC8
S2144014200CF3AB4207D9ED1900F1FF386FD2AB424F
S2144014306DD902383D44EB1A40EA01418FE7C1F1CD
S214401440200722FA07F88B4005FA01F448EA03031E
S21440145020FA07FE4FEA134CFD404EEA040EB5FB59
S214401460FCF94FEA1E440CFB19551FFA83F844EA70
S214401470054509FB08F4AC4202FA01F200FA01FA0B
S21440148008D9ED1809F1FF3043D2AC4241D9A9F151
S21440149002091D442D1B1FFA8EFEB5FBFCF00CFB0B
S2144014A010554EEA054400FB08F8A04507D9E41855
S2144014B000F1FF3529D2A04527D902381C4440EA1E
S2144014C00940A4EB0804A0FB02894C45C6464D469D
S2144014D015D312D056B1BAEB0E0364EB050404FAEA
S2144014E007F7CB401F43CC40376074600021BDE80F
S2144014F0F0871846F8E69046E0E6C245EAD2B8EBF2
S214401500020E69EB03050138E4E72846D7E7404674
S21440151091E78146BEE7014678E702383C4445E716
S214401520084608E7A8F102083D442BE7704700BF8D
S21440153070B50F4E0F4D761BB61018BF002405D061
S214401540013455F8043B9847A642F9D10A4E0B4D54
S214401550761B00F0A7F8B61018BF002406D001345A
S21440156055F8043B9847A642F9D170BD70BD00BF00
S214401570B0164000B0164000B8164000B016400006
S214401580024B13B1024800F005B870470000000057
S214401590A1154000002301461A46184600F01EB822
S2144015A038B50A4C0A4D641BA4100AD004F1804397
S2144015B0013B05EB8305013C55F804399847002C60
S2144015C0F9D1BDE8384000F077B800BFC8164000F3
S2144015D0C4164000704700BF704700BF2DE9F8436F
S2144015E02C4D0646286898460F469146FFF7F2FF70
S2144015F0294B1C68D4F84831002B3ED05A681F2A25
S2144016001CDC02F1010E76B103EB82010124C1F825
S2144016108890D3F8880194402043022EC3F888016E
S214401620C1F8088123D00232C3F804E0286843F8A2
S2144016302270FFF7D1FF0020BDE8F883174B0BB3AD
S2144016404FF4C870AFF300800346D8B1D4F84821B1
S2144016500260002141600A46C4F848014FF0010E7E
S214401660C0F88811C0F88C11002EDCD0CCE7D3F837
S2144016708C110C43C3F88C41D5E704F5A673C4F827
S2144016804831BBE72868FFF7A7FF4FF0FF30BDE8BB
S214401690F88300BF40040020A01640000000000071
S2144016A018000020F8B500BFF8BC08BC9E4670473E
S2144016B081154000F1004000F8B500BFF8BC08BCFA
S20C4016C09E467047CD00400035
S20C4016C888FBFF7F01000000D3
S2144016D0BFF35F8F0138FBD1704700000100000068
S2144016E000093D0000000000000000000403002048
S2144016F06C030020D403002000000000000000001F
S2144017000000000000000000000000000000000094
S2144017100000000000000000000000000000000084
S2144017200000000000000000000000000000000074
S2144017300000000000000000000000000000000064
S2144017400000000000000000000000000000000054
S2144017500000000000000000000000000000000044
S2144017600000000000000000000000000000000034
S2144017700000000000000000000000000000000024
S2144017800000000000000000000000000000000014
S21440179001000000000000000E33CDAB34126DE6B1
S2144017A0ECDE05000B00000000000000000000001A
S2144017B000000000000000000000000000000000E4
S2144017C000000000000000000000000000000000D4
S2144017D000000000000000000000000000000000C4
S2144017E000000000000000000000000000000000B4
S208401B10E004002088
S804400CF1BE
